{
  "_format": "hh-sol-artifact-1",
  "contractName": "NftMarketplace",
  "sourceName": "contracts/NftMarketplace.sol",
  "abi": [
    {
      "inputs": [],
      "name": "NftMarketplace__AlreadyListed",
      "type": "error"
    },
    {
      "inputs": [],
      "name": "NftMarketplace__NoProceeds",
      "type": "error"
    },
    {
      "inputs": [],
      "name": "NftMarketplace__NotApprovedForMarketplace",
      "type": "error"
    },
    {
      "inputs": [],
      "name": "NftMarketplace__NotEnoughETH",
      "type": "error"
    },
    {
      "inputs": [],
      "name": "NftMarketplace__NotListed",
      "type": "error"
    },
    {
      "inputs": [],
      "name": "NftMarketplace__NotOwner",
      "type": "error"
    },
    {
      "inputs": [],
      "name": "NftMarketplace__PriceMustbeAboveZero",
      "type": "error"
    },
    {
      "inputs": [],
      "name": "NftMarketplace__TransferFailed",
      "type": "error"
    },
    {
      "anonymous": false,
      "inputs": [
        {
          "indexed": true,
          "internalType": "address",
          "name": "buyer",
          "type": "address"
        },
        {
          "indexed": true,
          "internalType": "address",
          "name": "nftAddress",
          "type": "address"
        },
        {
          "indexed": true,
          "internalType": "uint256",
          "name": "tokenId",
          "type": "uint256"
        },
        {
          "indexed": false,
          "internalType": "uint256",
          "name": "price",
          "type": "uint256"
        }
      ],
      "name": "ItemBought",
      "type": "event"
    },
    {
      "anonymous": false,
      "inputs": [
        {
          "indexed": true,
          "internalType": "address",
          "name": "seller",
          "type": "address"
        },
        {
          "indexed": true,
          "internalType": "address",
          "name": "nftAddress",
          "type": "address"
        },
        {
          "indexed": true,
          "internalType": "uint256",
          "name": "tokenId",
          "type": "uint256"
        }
      ],
      "name": "ItemCancelled",
      "type": "event"
    },
    {
      "anonymous": false,
      "inputs": [
        {
          "indexed": true,
          "internalType": "address",
          "name": "seller",
          "type": "address"
        },
        {
          "indexed": true,
          "internalType": "address",
          "name": "nftAddress",
          "type": "address"
        },
        {
          "indexed": true,
          "internalType": "uint256",
          "name": "tokenId",
          "type": "uint256"
        },
        {
          "indexed": false,
          "internalType": "uint256",
          "name": "price",
          "type": "uint256"
        }
      ],
      "name": "ItemListed",
      "type": "event"
    },
    {
      "inputs": [
        {
          "internalType": "address",
          "name": "nftAddress",
          "type": "address"
        },
        {
          "internalType": "uint256",
          "name": "tokenId",
          "type": "uint256"
        }
      ],
      "name": "buyItem",
      "outputs": [],
      "stateMutability": "payable",
      "type": "function"
    },
    {
      "inputs": [
        {
          "internalType": "address",
          "name": "nftAddress",
          "type": "address"
        },
        {
          "internalType": "uint256",
          "name": "tokenId",
          "type": "uint256"
        }
      ],
      "name": "cancelListing",
      "outputs": [],
      "stateMutability": "nonpayable",
      "type": "function"
    },
    {
      "inputs": [
        {
          "internalType": "address",
          "name": "nftAddress",
          "type": "address"
        },
        {
          "internalType": "uint256",
          "name": "tokenId",
          "type": "uint256"
        }
      ],
      "name": "getListing",
      "outputs": [
        {
          "components": [
            {
              "internalType": "uint256",
              "name": "price",
              "type": "uint256"
            },
            {
              "internalType": "address",
              "name": "seller",
              "type": "address"
            }
          ],
          "internalType": "struct NftMarketplace.Listing",
          "name": "",
          "type": "tuple"
        }
      ],
      "stateMutability": "view",
      "type": "function"
    },
    {
      "inputs": [
        {
          "internalType": "address",
          "name": "seller",
          "type": "address"
        }
      ],
      "name": "getProceeds",
      "outputs": [
        {
          "internalType": "uint256",
          "name": "",
          "type": "uint256"
        }
      ],
      "stateMutability": "view",
      "type": "function"
    },
    {
      "inputs": [
        {
          "internalType": "address",
          "name": "nftAddress",
          "type": "address"
        },
        {
          "internalType": "uint256",
          "name": "tokenId",
          "type": "uint256"
        },
        {
          "internalType": "uint256",
          "name": "price",
          "type": "uint256"
        }
      ],
      "name": "listItem",
      "outputs": [],
      "stateMutability": "nonpayable",
      "type": "function"
    },
    {
      "inputs": [
        {
          "internalType": "address",
          "name": "nftAddress",
          "type": "address"
        },
        {
          "internalType": "uint256",
          "name": "tokenId",
          "type": "uint256"
        },
        {
          "internalType": "uint256",
          "name": "newPrice",
          "type": "uint256"
        }
      ],
      "name": "updateListing",
      "outputs": [],
      "stateMutability": "nonpayable",
      "type": "function"
    },
    {
      "inputs": [],
      "name": "withdrawProceeds",
      "outputs": [],
      "stateMutability": "nonpayable",
      "type": "function"
    }
  ],
  "bytecode": "0x608060405234801561001057600080fd5b50612035806100206000396000f3fe6080604052600436106100705760003560e01c80639038e6931161004e5780639038e693146101185780639f37092a1461012f578063b2ddee061461014b578063f772adf11461017457610070565b806330cfeda91461007557806388700d1c146100b257806389bfd38f146100ef575b600080fd5b34801561008157600080fd5b5061009c60048036038101906100979190611d46565b61019d565b6040516100a99190611d8c565b60405180910390f35b3480156100be57600080fd5b506100d960048036038101906100d49190611dd3565b610222565b6040516100e69190611e60565b60405180910390f35b3480156100fb57600080fd5b5061011660048036038101906101119190611e7b565b610328565b005b34801561012457600080fd5b5061012d610a91565b005b61014960048036038101906101449190611dd3565b610ce2565b005b34801561015757600080fd5b50610172600480360381019061016d9190611dd3565b6112cc565b005b34801561018057600080fd5b5061019b60048036038101906101969190611e7b565b6117cd565b005b60006101b36725e86d5ea9d0095360c01b611cb0565b6101c767fc94e9862360048460c01b611cb0565b6101db67aae855eeb3f8bbe060c01b611cb0565b600160008373ffffffffffffffffffffffffffffffffffffffff1673ffffffffffffffffffffffffffffffffffffffff168152602001908152602001600020549050919050565b61022a611cb3565b61023e67e83fa6161141a2a360c01b611cb0565b61025267635293af0309d96e60c01b611cb0565b61026667bf9e8802b3c2260e60c01b611cb0565b6000808473ffffffffffffffffffffffffffffffffffffffff1673ffffffffffffffffffffffffffffffffffffffff1681526020019081526020016000206000838152602001908152602001600020604051806040016040529081600082015481526020016001820160009054906101000a900473ffffffffffffffffffffffffffffffffffffffff1673ffffffffffffffffffffffffffffffffffffffff1673ffffffffffffffffffffffffffffffffffffffff1681525050905092915050565b61033c67f0aec1544fcea74d60c01b611cb0565b82826103526798a709f62f98060660c01b611cb0565b6103666706a559f4efea11e060c01b611cb0565b61037a672f701ae511b0629d60c01b611cb0565b60008060008473ffffffffffffffffffffffffffffffffffffffff1673ffffffffffffffffffffffffffffffffffffffff1681526020019081526020016000206000838152602001908152602001600020604051806040016040529081600082015481526020016001820160009054906101000a900473ffffffffffffffffffffffffffffffffffffffff1673ffffffffffffffffffffffffffffffffffffffff1673ffffffffffffffffffffffffffffffffffffffff1681525050905061044c6725180b4135a1c4b360c01b611cb0565b610460677ad06d5f7e319bb660c01b611cb0565b6000816000015111156104c75761048167ed04e72e3be7115a60c01b611cb0565b610495671b26deef63029dd260c01b611cb0565b6040517f0853301a00000000000000000000000000000000000000000000000000000000815260040160405180910390fd5b6104db671e05f69298fe8bfa60c01b611cb0565b6104ef67c48026e70f1b244b60c01b611cb0565b6105036714099f2a430c259560c01b611cb0565b610517673ea9ecd5e221d4cd60c01b611cb0565b85853361052e67ffa7d7a9304210fe60c01b611cb0565b610542670453ff73c0bf7b6c60c01b611cb0565b6105566779568e8af70e146160c01b611cb0565b600083905061056f67bd4c3518fbc05b2760c01b611cb0565b61058367c6aeacb03276189460c01b611cb0565b60008173ffffffffffffffffffffffffffffffffffffffff16636352211e856040518263ffffffff1660e01b81526004016105be9190611d8c565b602060405180830381865afa1580156105db573d6000803e3d6000fd5b505050506040513d601f19601f820116820180604052508101906105ff9190611ee3565b905061061567c5eafc962b43ae0760c01b611cb0565b6106296728c368977111d04d60c01b611cb0565b8273ffffffffffffffffffffffffffffffffffffffff168173ffffffffffffffffffffffffffffffffffffffff16146106b657610670676d267f328146660660c01b611cb0565b61068467039f35fa2e55a34760c01b611cb0565b6040517f94953b6000000000000000000000000000000000000000000000000000000000815260040160405180910390fd5b6106ca67ad9d3f7e44b4225b60c01b611cb0565b6106de67f692fc04e0d98a7f60c01b611cb0565b6106f26721eb8d487a3f7cb960c01b611cb0565b61070667f39e134c9a5176b560c01b611cb0565b61071a6739fc66a257f3c72160c01b611cb0565b61072e67a5ec69f0674087e760c01b611cb0565b600089116107905761074a67ecd13e12cc2fb66260c01b611cb0565b61075e6754e7826b9758095560c01b611cb0565b6040517f128d3e8f00000000000000000000000000000000000000000000000000000000815260040160405180910390fd5b6107a467b99140e655328e1e60c01b611cb0565b6107b8675c7b4ec2d181cef360c01b611cb0565b6107cc67cf22127580450d4560c01b611cb0565b60008b90506107e567ed695f08ad0a7ca060c01b611cb0565b6107f967935da14623d88d9760c01b611cb0565b3073ffffffffffffffffffffffffffffffffffffffff168173ffffffffffffffffffffffffffffffffffffffff1663081812fc8d6040518263ffffffff1660e01b81526004016108499190611d8c565b602060405180830381865afa158015610866573d6000803e3d6000fd5b505050506040513d601f19601f8201168201806040525081019061088a9190611ee3565b73ffffffffffffffffffffffffffffffffffffffff16146108ff576108b967829ec400ede511d060c01b611cb0565b6108cd67ca3b46ee780b7b9f60c01b611cb0565b6040517f13e7d28d00000000000000000000000000000000000000000000000000000000815260040160405180910390fd5b61091367e3189b09646610b160c01b611cb0565b61092767fd744f04b67fbf2b60c01b611cb0565b60405180604001604052808b81526020013373ffffffffffffffffffffffffffffffffffffffff168152506000808e73ffffffffffffffffffffffffffffffffffffffff1673ffffffffffffffffffffffffffffffffffffffff16815260200190815260200160002060008d81526020019081526020016000206000820151816000015560208201518160010160006101000a81548173ffffffffffffffffffffffffffffffffffffffff021916908373ffffffffffffffffffffffffffffffffffffffff160217905550905050610a0967cf3426653b3a290560c01b611cb0565b610a1d671e8da6e7a3d9871960c01b611cb0565b8a8c73ffffffffffffffffffffffffffffffffffffffff163373ffffffffffffffffffffffffffffffffffffffff167fd547e933094f12a9159076970143ebe73234e64480317844b0dcb36117116de48d604051610a7b9190611d8c565b60405180910390a4505050505050505050505050565b610aa5674f89ec8bae8f6f6060c01b611cb0565b610ab967d6b484f2c97dc86560c01b611cb0565b610acd6737badacfb32c26ed60c01b611cb0565b6000600160003373ffffffffffffffffffffffffffffffffffffffff1673ffffffffffffffffffffffffffffffffffffffff168152602001908152602001600020549050610b2567f569b9e27e39d76d60c01b611cb0565b610b396747ffc753d8cf3c1b60c01b611cb0565b60008111610b9b57610b5567984f274ffea7229960c01b611cb0565b610b6967521188425badd46060c01b611cb0565b6040517f668a7c4200000000000000000000000000000000000000000000000000000000815260040160405180910390fd5b610baf67438b99b7727827ab60c01b611cb0565b610bc3676e512d3bc550a33e60c01b611cb0565b610bd76745e281eb1e175dd460c01b611cb0565b60003373ffffffffffffffffffffffffffffffffffffffff1682604051610bfd90611f41565b60006040518083038185875af1925050503d8060008114610c3a576040519150601f19603f3d011682016040523d82523d6000602084013e610c3f565b606091505b50509050610c5767a5fa7fc27a3d8e4360c01b611cb0565b610c6b675ec2c9c896f1cb7160c01b611cb0565b80610cca57610c8467841356eb136eee5260c01b611cb0565b610c98672dbd6a72c383fd0560c01b611cb0565b6040517fa05884ba00000000000000000000000000000000000000000000000000000000815260040160405180910390fd5b610cde67442cca353624cb7460c01b611cb0565b5050565b610cf667473edd21093e192c60c01b611cb0565b8181610d0c670c4d5de390281c6260c01b611cb0565b610d20673593deea0045f26260c01b611cb0565b610d3467d47d116603bd6a7860c01b611cb0565b60008060008473ffffffffffffffffffffffffffffffffffffffff1673ffffffffffffffffffffffffffffffffffffffff1681526020019081526020016000206000838152602001908152602001600020604051806040016040529081600082015481526020016001820160009054906101000a900473ffffffffffffffffffffffffffffffffffffffff1673ffffffffffffffffffffffffffffffffffffffff1673ffffffffffffffffffffffffffffffffffffffff16815250509050610e0667b1e1dbbf5f1c903d60c01b611cb0565b610e1a67e36b50a7e931bfe760c01b611cb0565b6000816000015111610e8057610e3a6794cbfc85275deff660c01b611cb0565b610e4e67d7b5d3e8089716b860c01b611cb0565b6040517ffa60e3ec00000000000000000000000000000000000000000000000000000000815260040160405180910390fd5b610e946783ac3f72a454853960c01b611cb0565b610ea86743be1c402aad3bf460c01b611cb0565b610ebc67c02668a379f3ec9960c01b611cb0565b610ed0673c36f785e2798eb860c01b611cb0565b610ee46768801e63de8de49160c01b611cb0565b610ef8670151f887f5d4eacd60c01b611cb0565b60008060008773ffffffffffffffffffffffffffffffffffffffff1673ffffffffffffffffffffffffffffffffffffffff1681526020019081526020016000206000868152602001908152602001600020604051806040016040529081600082015481526020016001820160009054906101000a900473ffffffffffffffffffffffffffffffffffffffff1673ffffffffffffffffffffffffffffffffffffffff1673ffffffffffffffffffffffffffffffffffffffff16815250509050610fca67a333e29ad212e18d60c01b611cb0565b610fde67a410bae00f27948260c01b611cb0565b806000015134101561104457610ffe67267c2e68e672f4c960c01b611cb0565b611012673e690922b9a7411460c01b611cb0565b6040517f1bb49e7100000000000000000000000000000000000000000000000000000000815260040160405180910390fd5b611058679d71aa23b0bf912b60c01b611cb0565b61106c670c9dc8696ce6bc8e60c01b611cb0565b3460016000836020015173ffffffffffffffffffffffffffffffffffffffff1673ffffffffffffffffffffffffffffffffffffffff168152602001908152602001600020546110bb9190611f85565b60016000836020015173ffffffffffffffffffffffffffffffffffffffff1673ffffffffffffffffffffffffffffffffffffffff168152602001908152602001600020819055506111166793a992ed11f06c9360c01b611cb0565b6000808773ffffffffffffffffffffffffffffffffffffffff1673ffffffffffffffffffffffffffffffffffffffff16815260200190815260200160002060008681526020019081526020016000206000808201600090556001820160006101000a81549073ffffffffffffffffffffffffffffffffffffffff021916905550506111ab67e6c21d8ee8432ade60c01b611cb0565b6111bf67300328bb3039b4b660c01b611cb0565b8573ffffffffffffffffffffffffffffffffffffffff166342842e0e826020015133886040518463ffffffff1660e01b815260040161120093929190611fc8565b600060405180830381600087803b15801561121a57600080fd5b505af115801561122e573d6000803e3d6000fd5b50505050611246678ab02c0ce392acf260c01b611cb0565b61125a67113761c5c4c3882a60c01b611cb0565b848673ffffffffffffffffffffffffffffffffffffffff163373ffffffffffffffffffffffffffffffffffffffff167f263223b1dd81e51054a4e6f791d45a4a1ddb4aadcd93a2dfd892615c3fdac18784600001516040516112bc9190611d8c565b60405180910390a4505050505050565b6112e0670b84f3af2fb8fdf860c01b611cb0565b8181336112f767ffa7d7a9304210fe60c01b611cb0565b61130b670453ff73c0bf7b6c60c01b611cb0565b61131f6779568e8af70e146160c01b611cb0565b600083905061133867bd4c3518fbc05b2760c01b611cb0565b61134c67c6aeacb03276189460c01b611cb0565b60008173ffffffffffffffffffffffffffffffffffffffff16636352211e856040518263ffffffff1660e01b81526004016113879190611d8c565b602060405180830381865afa1580156113a4573d6000803e3d6000fd5b505050506040513d601f19601f820116820180604052508101906113c89190611ee3565b90506113de67c5eafc962b43ae0760c01b611cb0565b6113f26728c368977111d04d60c01b611cb0565b8273ffffffffffffffffffffffffffffffffffffffff168173ffffffffffffffffffffffffffffffffffffffff161461147f57611439676d267f328146660660c01b611cb0565b61144d67039f35fa2e55a34760c01b611cb0565b6040517f94953b6000000000000000000000000000000000000000000000000000000000815260040160405180910390fd5b61149367ad9d3f7e44b4225b60c01b611cb0565b6114a767f692fc04e0d98a7f60c01b611cb0565b6114bb67218e4212d7d7ccaf60c01b611cb0565b6114cf6760a3271130f3aca260c01b611cb0565b86866114e5670c4d5de390281c6260c01b611cb0565b6114f9673593deea0045f26260c01b611cb0565b61150d67d47d116603bd6a7860c01b611cb0565b60008060008473ffffffffffffffffffffffffffffffffffffffff1673ffffffffffffffffffffffffffffffffffffffff1681526020019081526020016000206000838152602001908152602001600020604051806040016040529081600082015481526020016001820160009054906101000a900473ffffffffffffffffffffffffffffffffffffffff1673ffffffffffffffffffffffffffffffffffffffff1673ffffffffffffffffffffffffffffffffffffffff168152505090506115df67b1e1dbbf5f1c903d60c01b611cb0565b6115f367e36b50a7e931bfe760c01b611cb0565b6000816000015111611659576116136794cbfc85275deff660c01b611cb0565b61162767d7b5d3e8089716b860c01b611cb0565b6040517ffa60e3ec00000000000000000000000000000000000000000000000000000000815260040160405180910390fd5b61166d6783ac3f72a454853960c01b611cb0565b6116816743be1c402aad3bf460c01b611cb0565b6116956774dd8b8c2f2f399c60c01b611cb0565b6116a9674780219bfcaf842060c01b611cb0565b6116bd6755f82b7c220feb8160c01b611cb0565b6000808b73ffffffffffffffffffffffffffffffffffffffff1673ffffffffffffffffffffffffffffffffffffffff16815260200190815260200160002060008a81526020019081526020016000206000808201600090556001820160006101000a81549073ffffffffffffffffffffffffffffffffffffffff0219169055505061175267026e8e41033942b260c01b611cb0565b611766677abc430e1420d09160c01b611cb0565b888a73ffffffffffffffffffffffffffffffffffffffff163373ffffffffffffffffffffffffffffffffffffffff167f6e08c1d889d309942730e4afa7963d0c5294a34a479f2c8cf39a953f287dcdee60405160405180910390a450505050505050505050565b6117e1679ccac5f3339dba0960c01b611cb0565b8282336117f867ffa7d7a9304210fe60c01b611cb0565b61180c670453ff73c0bf7b6c60c01b611cb0565b6118206779568e8af70e146160c01b611cb0565b600083905061183967bd4c3518fbc05b2760c01b611cb0565b61184d67c6aeacb03276189460c01b611cb0565b60008173ffffffffffffffffffffffffffffffffffffffff16636352211e856040518263ffffffff1660e01b81526004016118889190611d8c565b602060405180830381865afa1580156118a5573d6000803e3d6000fd5b505050506040513d601f19601f820116820180604052508101906118c99190611ee3565b90506118df67c5eafc962b43ae0760c01b611cb0565b6118f36728c368977111d04d60c01b611cb0565b8273ffffffffffffffffffffffffffffffffffffffff168173ffffffffffffffffffffffffffffffffffffffff16146119805761193a676d267f328146660660c01b611cb0565b61194e67039f35fa2e55a34760c01b611cb0565b6040517f94953b6000000000000000000000000000000000000000000000000000000000815260040160405180910390fd5b61199467ad9d3f7e44b4225b60c01b611cb0565b6119a867f692fc04e0d98a7f60c01b611cb0565b6119bc670fdfcb1734f187de60c01b611cb0565b6119d0675b6664fc08cc47e460c01b611cb0565b87876119e6670c4d5de390281c6260c01b611cb0565b6119fa673593deea0045f26260c01b611cb0565b611a0e67d47d116603bd6a7860c01b611cb0565b60008060008473ffffffffffffffffffffffffffffffffffffffff1673ffffffffffffffffffffffffffffffffffffffff1681526020019081526020016000206000838152602001908152602001600020604051806040016040529081600082015481526020016001820160009054906101000a900473ffffffffffffffffffffffffffffffffffffffff1673ffffffffffffffffffffffffffffffffffffffff1673ffffffffffffffffffffffffffffffffffffffff16815250509050611ae067b1e1dbbf5f1c903d60c01b611cb0565b611af467e36b50a7e931bfe760c01b611cb0565b6000816000015111611b5a57611b146794cbfc85275deff660c01b611cb0565b611b2867d7b5d3e8089716b860c01b611cb0565b6040517ffa60e3ec00000000000000000000000000000000000000000000000000000000815260040160405180910390fd5b611b6e6783ac3f72a454853960c01b611cb0565b611b826743be1c402aad3bf460c01b611cb0565b611b96679cc4a8bbed4eafc060c01b611cb0565b611baa67180f43708a819ad060c01b611cb0565b611bbe67aa60c9da61afed3560c01b611cb0565b886000808d73ffffffffffffffffffffffffffffffffffffffff1673ffffffffffffffffffffffffffffffffffffffff16815260200190815260200160002060008c815260200190815260200160002060000181905550611c2967e8d4242fb7e7005560c01b611cb0565b611c3d673c8f41935ae50c4560c01b611cb0565b898b73ffffffffffffffffffffffffffffffffffffffff163373ffffffffffffffffffffffffffffffffffffffff167fd547e933094f12a9159076970143ebe73234e64480317844b0dcb36117116de48c604051611c9b9190611d8c565b60405180910390a45050505050505050505050565b50565b604051806040016040528060008152602001600073ffffffffffffffffffffffffffffffffffffffff1681525090565b600080fd5b600073ffffffffffffffffffffffffffffffffffffffff82169050919050565b6000611d1382611ce8565b9050919050565b611d2381611d08565b8114611d2e57600080fd5b50565b600081359050611d4081611d1a565b92915050565b600060208284031215611d5c57611d5b611ce3565b5b6000611d6a84828501611d31565b91505092915050565b6000819050919050565b611d8681611d73565b82525050565b6000602082019050611da16000830184611d7d565b92915050565b611db081611d73565b8114611dbb57600080fd5b50565b600081359050611dcd81611da7565b92915050565b60008060408385031215611dea57611de9611ce3565b5b6000611df885828601611d31565b9250506020611e0985828601611dbe565b9150509250929050565b611e1c81611d73565b82525050565b611e2b81611d08565b82525050565b604082016000820151611e476000850182611e13565b506020820151611e5a6020850182611e22565b50505050565b6000604082019050611e756000830184611e31565b92915050565b600080600060608486031215611e9457611e93611ce3565b5b6000611ea286828701611d31565b9350506020611eb386828701611dbe565b9250506040611ec486828701611dbe565b9150509250925092565b600081519050611edd81611d1a565b92915050565b600060208284031215611ef957611ef8611ce3565b5b6000611f0784828501611ece565b91505092915050565b600081905092915050565b50565b6000611f2b600083611f10565b9150611f3682611f1b565b600082019050919050565b6000611f4c82611f1e565b9150819050919050565b7f4e487b7100000000000000000000000000000000000000000000000000000000600052601160045260246000fd5b6000611f9082611d73565b9150611f9b83611d73565b9250828201905080821115611fb357611fb2611f56565b5b92915050565b611fc281611d08565b82525050565b6000606082019050611fdd6000830186611fb9565b611fea6020830185611fb9565b611ff76040830184611d7d565b94935050505056fea26469706673582212207e4407e010a5d04e380a2c4f4386438190e7de553252d35973acc615a3b1cb3364736f6c63430008110033",
  "linkReferences": {},
  "deployedLinkReferences": {}
}