{
  "_format": "hh-sol-artifact-1",
  "contractName": "NftMarketplace",
  "sourceName": "contracts/NftMarketplace.sol",
  "abi": [
    {
      "inputs": [],
      "name": "NftMarketplace__AlreadyListed",
      "type": "error"
    },
    {
      "inputs": [],
      "name": "NftMarketplace__NotApprovedForMarketplace",
      "type": "error"
    },
    {
      "inputs": [],
      "name": "NftMarketplace__NotOwner",
      "type": "error"
    },
    {
      "inputs": [],
      "name": "NftMarketplace__PriceMustbeAboveZero",
      "type": "error"
    },
    {
      "anonymous": false,
      "inputs": [
        {
          "indexed": true,
          "internalType": "address",
          "name": "seller",
          "type": "address"
        },
        {
          "indexed": true,
          "internalType": "address",
          "name": "nftAddress",
          "type": "address"
        },
        {
          "indexed": true,
          "internalType": "uint256",
          "name": "tokenId",
          "type": "uint256"
        },
        {
          "indexed": false,
          "internalType": "uint256",
          "name": "price",
          "type": "uint256"
        }
      ],
      "name": "ItemListed",
      "type": "event"
    },
    {
      "inputs": [
        {
          "internalType": "address",
          "name": "nftAddress",
          "type": "address"
        },
        {
          "internalType": "uint256",
          "name": "tokenId",
          "type": "uint256"
        },
        {
          "internalType": "uint256",
          "name": "price",
          "type": "uint256"
        }
      ],
      "name": "listItem",
      "outputs": [],
      "stateMutability": "nonpayable",
      "type": "function"
    }
  ],
  "bytecode": "0x608060405234801561001057600080fd5b50610623806100206000396000f3fe608060405234801561001057600080fd5b506004361061002b5760003560e01c806389bfd38f14610030575b600080fd5b61004a6004803603810190610045919061052e565b61004c565b005b828260008060008473ffffffffffffffffffffffffffffffffffffffff1673ffffffffffffffffffffffffffffffffffffffff1681526020019081526020016000206000838152602001908152602001600020604051806040016040529081600082015481526020016001820160009054906101000a900473ffffffffffffffffffffffffffffffffffffffff1673ffffffffffffffffffffffffffffffffffffffff1673ffffffffffffffffffffffffffffffffffffffff1681525050905060008160000151111561014b576040517f0853301a00000000000000000000000000000000000000000000000000000000815260040160405180910390fd5b858533600083905060008173ffffffffffffffffffffffffffffffffffffffff16636352211e856040518263ffffffff1660e01b815260040161018e9190610590565b602060405180830381865afa1580156101ab573d6000803e3d6000fd5b505050506040513d601f19601f820116820180604052508101906101cf91906105c0565b90508273ffffffffffffffffffffffffffffffffffffffff168173ffffffffffffffffffffffffffffffffffffffff1614610236576040517f94953b6000000000000000000000000000000000000000000000000000000000815260040160405180910390fd5b60008911610270576040517f128d3e8f00000000000000000000000000000000000000000000000000000000815260040160405180910390fd5b60008b90503073ffffffffffffffffffffffffffffffffffffffff168173ffffffffffffffffffffffffffffffffffffffff1663081812fc8d6040518263ffffffff1660e01b81526004016102c59190610590565b602060405180830381865afa1580156102e2573d6000803e3d6000fd5b505050506040513d601f19601f8201168201806040525081019061030691906105c0565b73ffffffffffffffffffffffffffffffffffffffff1614610353576040517f13e7d28d00000000000000000000000000000000000000000000000000000000815260040160405180910390fd5b60405180604001604052808b81526020013373ffffffffffffffffffffffffffffffffffffffff168152506000808e73ffffffffffffffffffffffffffffffffffffffff1673ffffffffffffffffffffffffffffffffffffffff16815260200190815260200160002060008d81526020019081526020016000206000820151816000015560208201518160010160006101000a81548173ffffffffffffffffffffffffffffffffffffffff021916908373ffffffffffffffffffffffffffffffffffffffff1602179055509050508a8c73ffffffffffffffffffffffffffffffffffffffff163373ffffffffffffffffffffffffffffffffffffffff167fd547e933094f12a9159076970143ebe73234e64480317844b0dcb36117116de48d60405161047f9190610590565b60405180910390a4505050505050505050505050565b600080fd5b600073ffffffffffffffffffffffffffffffffffffffff82169050919050565b60006104c58261049a565b9050919050565b6104d5816104ba565b81146104e057600080fd5b50565b6000813590506104f2816104cc565b92915050565b6000819050919050565b61050b816104f8565b811461051657600080fd5b50565b60008135905061052881610502565b92915050565b60008060006060848603121561054757610546610495565b5b6000610555868287016104e3565b935050602061056686828701610519565b925050604061057786828701610519565b9150509250925092565b61058a816104f8565b82525050565b60006020820190506105a56000830184610581565b92915050565b6000815190506105ba816104cc565b92915050565b6000602082840312156105d6576105d5610495565b5b60006105e4848285016105ab565b9150509291505056fea2646970667358221220305f918e2bd8b12395bcff67921dcf584b653bca59eb4ed137348e964a667e2264736f6c63430008110033",
  "linkReferences": {},
  "deployedLinkReferences": {}
}